ACC100000001John Smith               123 Oak Street             Apt 4B                    Anytown, ST 12345         555-123-4567CHECKING20230115
ACC100000002Mary Johnson             456 Elm Avenue             Unit 12                   Springfield, ST 12346     555-234-5678SAVINGS 20220310
ACC100000003Robert Williams          789 Pine Road              Suite 200                 Riverside, ST 12347       555-345-6789CHECKING20231201
