JOB000000001EOD-RECON      20241021083000COMPLETED  20241021083245000010000000000000000000
009113720EOD-RECON      20251021091137STARTED                 000000000000000000
009114360EOD-RECON      20251021091143STARTED                 000000000000000000
009124839EOD-RECON      20251021091248STARTED                 000000000000000000
009124839EOD-RECON      20251021091248COMPLETED 20251021091248000000010000000000
